:020000000328D3
:100006008316031386018312860106140330FC004F
:100016009730FD00FD0B0D28FC0B0D28000000009D
:1000260006103430FC00F130FD00FD0B1828FC0BE7
:100036001828000000000B30FB002630FC005D3065
:10004600FD00FD0B2428FC0B2428FB0B24280000B4
:10005600000006140430FC00E430FD00FD0B3128DE
:10006600FC0B3128000006103430FC00F130FD0096
:10007600FD0B3B28FC0B3B28000000000B30FB006F
:100086002630FC005D30FD00FD0B4728FC0B4728A1
:10009600FB0B47280000000006140830FC00C9309E
:1000A600FD00FD0B5428FC0B542800000000061030
:1000B6003430FC00F130FD00FD0B5F28FC0B5F289F
:1000C600000000000B30FB002630FC005D30FD0018
:1000D600FD0B6B28FC0B6B28FB0B6B28000000004C
:0400E600082874284A
:02400E004A2F37
:00000001FF
