:02000000B72D1A
:0E000600213083120313FD00FD0B07280800B4
:06001400000000000800DE
:10001A000F3083120313FC004730FD00FD0B132839
:0A002A00FC0B132800000000080082
:0E003400F201F101F001F801F30100300800C3
:1000420083120313E21B2728861128288615621BB8
:100052002C2806112D280615E21A3128861032287E
:100062008614621A36280610372806143A183B28D6
:1000720006163C28061286160A208612E219432822
:100082008611442886156219482806114928061542
:10009200E2184D2886104E2886146218522806103F
:1000A200532806143A185728061658280612861698
:1000B2000A2086123A1C5F280D20602803200800BF
:0800C200FA1FF21300300800E0
:1000CA007B15FB1F6F280130F300F201F101F001EB
:0800DA00FA0DF20CFF300800E2
:1000E200FB14FB1F7B28FF30F300F200F100F0004D
:0800F200FA0DF20CFF300800CA
:1000FA000E3083120313FD00FD0B81280000080057
:10010A00831203136008F2007208F100F20A610810
:10011A00F000E10A700884000008F0007108840009
:10012A007008800071088400000803199D28892836
:06013A006008F00008005F
:06014000FB15FF30080072
:10014600A0017208031DB8287108F2007008F100BA
:10015600F001A0157208031DB8287108F200F1011C
:10016600A011201672080319C6282008F302031DE1
:10017600031CCA280310F21BCE28F00DF10DF20D58
:10018600F30BBE28CA280130FC001A20D128023001
:0E019600FC006520D1280430FC006120080028
:0E01A4008312031335088A0034088200080015
:1001B20083120313FD01F801700803190034740659
:1001C200FA00FA1BFD09FB01F41FE928F409F40AFD
:1001D200F01FED28F009F00A70087404FA00FA1B07
:1001E20011297408F802F00D700DF80D7408F80763
:1001F200F00D0630FC00700DF80D74087018F8024E
:10020200701CF807F00DFC0BFC28701CF8077B181B
:100212001F29FD1F0034F009F00AF809F80A00341A
:10022200F41F1C29F01B19297008F800F0010A2993
:10023200F001F00A0034F009FB0AF228F80A740807
:100242007802031D0A29F801F00AF01F0A29FF3477
:020252000800A2
:1002540083120313FA017308031D7A147708031D2C
:10026400FA147A0803197629033A031941297A18EA
:100274003E29F61F74297229F21F72297429720803
:100284008039FA00F21376088039F6137A060319D6
:100294004F297A08031972297429770873020319FC
:1002A4005629031C6A296E297608720203195D29EE
:1002B400031C6A296E297508710203196429031C39
:1002C4006A296E29740870020319762903186E29A5
:1002D400FA08031974297229FA080319722974296E
:1002E4000314080003100800031403150800080091
:1002F400831203133A106008E20021203A14080024
:1003040083120313FB017308031D77080319D9290A
:1003140072087606FA007708F3077E30031C9629E4
:10032400F3020318DC299929F302031CDF2972085C
:10033400F8007108FC007008FD00F817F6170310A8
:10034400F201F101F0011830A0007D1CB3297408FA
:10035400F00775080318750FF10776080318760F70
:10036400F207F20CF10CF00CF80CFC0CFD0C031071
:10037400A00BA729F21BC329F80DF00DF10DF20D06
:10038400F3037B1B701CD529F81FD529F00A031928
:10039400F10A0319F20A031DD529F20CF10CF00C31
:1003A400F30A0319DC29FA1FF2130030E1290130A2
:1003B4001A20E12902307120E1290430652000006F
:0203C40008002F
:1003C600F529803083120313D300082AC030D300E6
:1003D600082A9430D300082AD430D300082A803063
:1003E600D300082A831203135308013A0319E42998
:1003F6005308023A0319E9295308033A0319EC2969
:100406005308043A0319EF29F2295403F00053085C
:10041600F0077008D3007008E20021203A10D601D8
:1004260056085507840000080319212A560855075F
:1004360084000008E0007A21D60A132A3A1408003C
:10044600352A803083120313D300482AC030D300E4
:10045600482A9430D300482AD430D300482A803022
:10046600D300482A831203135308013A0319242A96
:100476005308023A0319292A5308033A03192C2A66
:100486005308043A03192F2A322A5403F00053085A
:10049600F0077008D3003A147008E20021203A10E1
:0A04A6005508E20021203A14080076
:1004B00083120313DE01DF015308DA005408DB0066
:1004C0005508DC005608DD005D08FF3A031D722A5E
:1004D0005C08FF3A031D722A5B08FF3A031D722A6B
:1004E0005A08FF3A031D7C2A5708E0002130E1003A
:1004F00085200330F000552C0130D800DC1F8B2AFA
:1005000080305C06F0007008DC00D80A57088400D0
:100510002D308000D70A0030F0005D06031D9A2AB6
:1005200070085C06031D9A2A70085B06031D9A2A50
:100530005A08003A031DA32A5708E0002630E100BC
:100540008520F001552C5D08FF3A031DB12A5C0897
:10055000003A031DB12A5B08003A031DB12A5A086C
:10056000003A031DBB2A5708E0002830E10085202F
:100570005808F000552C0030F4000030F500003031
:10058000F6007F30F7005A08F0005B08F1005C08C5
:10059000F2005D08F3002A21013003180030F0005A
:1005A00070080319EE2A5A08F0005B08F1005C0895
:1005B000F2005D08F3000030F4000030F500203058
:1005C000F6008230F70082217008DA007108DB0043
:1005D0007208DC007308DD00DF03BB2A0030F40082
:1005E0000030F5002030F6008230F7005A08F000A5
:1005F0005B08F1005C08F2005D08F3002A2101307D
:10060000031C0030F00070080319212B5A08F00079
:100610005B08F1005C08F2005D08F300CD30F400E7
:10062000CC30F5004C30F6007B30F70082217008AA
:10063000DA007108DB007208DC007308DD00DF0AF5
:10064000EE2AFF305A05F800FF305B05F9007F30D5
:100650005C05FA0000305D05FB007808F4007908BD
:10066000F5007A08F6007B08F700F40DF50DF60D9D
:10067000F70D741000305A05F00000305B05F100F2
:1006800000305C05F200FF305D05F3007008DA0011
:100690007108DB007208DC007308DD0074085A047E
:1006A000F00075085B04F10076085C04F20077083E
:1006B0005D04F3007008DA007108DB007208DC00EA
:1006C0007308DD007F305D02F0007008D900013052
:1006D000DD007008F4005A08F0005B08F1005C08C7
:1006E000F2005D08F300740803197D2BF00DF10D85
:1006F000F20DF30D7010FF3E742B7008DA007108D4
:10070000DB007208DC007308DD005D08303EF0009D
:100710005708840070088000D70A80305F06F00018
:100720008030013A7002031C9E2B8030063AF000A4
:1007300080305F067002031C9E2BA52B5708840097
:100740002E308000D70A0130DE000630D90059086B
:10075000003A0319032CDD015A08F0005B08F10090
:100760005C08F2005D08F300F00DF10DF20DF30DE1
:100770007010F00DF10DF20DF30D70105A08F00726
:100780005B0803185B0FF1075C0803185C0FF207A6
:100790005D0803185D0FF3077008DA007108DB00CD
:1007A0007208DC007308DD005A08F0005B08F100F5
:1007B0005C08F2005D08F300F00DF10DF20DF30D91
:1007C00070107008DA007108DB007208DC00730832
:1007D000DD005D08303EF00057088400700880009E
:1007E000D70A5E08003A031D012CDF035F08003AB8
:1007F000031D012C570884002E308000D70A0130D9
:10080000DE00D903A72BFF30570784000008303AD9
:10081000031D0C2CD703032CFF305707840000085E
:100820002E3A031D142CD7035F08003A0319512CEC
:100830005708840065308000D70A80305F06F000DA
:100840008030003A700203182D2C570884002D3098
:100850008000D70A5F08003CDF005F08D9008030C5
:10086000093AF00080305F0670020318432C0A300A
:10087000F4005908F000D9203030F0075708840000
:1008800070088000D70A0A30F4005908F000D92017
:100890007808F0003030F0075708840070088000B6
:0C08A000D70A570884008001F00108000E
:1008AC00831203137408003A031D712C7508003A67
:1008BC00031D712C7608003A031D712C7708003A41
:1008CC00031D712CFF30F000FF30F1007F30F2007F
:1008DC00FF30F3000C2D8312031377080319002D3E
:1008EC0073080319032D720876068039FA00F21783
:1008FC00F617A0017208F8007108FC007008FD00E2
:10090C007408FD027508031C750FFC027608031CA5
:10091C00760FF802F801FC01FD01031C9C2C03105E
:10092C00F20CF10CF00CF80C0130A0007708F3027B
:10093C00031CA62C7E302007F3070318062DAB2CC6
:10094C007E302007F307031C092D1830FA07FD0D24
:10095C00FC0DF80DF00DF10DF20DA00D7408F00268
:10096C007508031C750FF1027608031C760FF20252
:10097C00760DA004201CC42C7D14CF2C7408F00719
:10098C0075080318750FF10776080318760AF20735
:10099C007D10FA031F307A05031DAD2C7B1B7D1CCB
:1009AC00F62C0310F00DF10DF20DA00D7408F002F1
:1009BC007508031C750FF1027608031C760FF20202
:1009CC00760D20040139FD070318FC0A0319F80AF7
:1009DC00031DF62CF80CFC0CFD0CF30A0319062D68
:1009EC00FA1FF8137808F2007C08F1007D08F0007B
:1009FC0000300B2D0130A0200B2D02301A200B2DB6
:0E0A0C00043071200B2D08306520000008001A
:100A1A0083120313D40154085307840000080319EE
:100A2A001E2D5408530784000008E0007A21D40AD6
:040A3A00102D080073
:100A3E00831203139F01C0309F042509F000700834
:100A4E0083169F051F179F1783125308F000F00D92
:100A5E007010F00D7010F00D701070089F041F14C0
:100A6E007D201F151F1D3D2D0000392D1F101E0846
:100A7E00F100F00183161E08F0040030F1040800A6
:100A8E00D2208A110A128000840AB40A0319B50A08
:080A9E00F003031D472D0800C1
:100AA600831203137008F8007108F000F101F201D7
:100AB600F301FB01FC019630F300FA017008F10026
:0C0AC6007808F000F801F201A3200800FD
:100AD200831603138612061206108610061186115B
:100AE20083128612061286110611861006100D2038
:100AF2000D200D208614061486160A2086120D205B
:100B020086160A2086120D2086160A2086120D20CD
:100B1200061086160A2086120D2086160A208612D4
:100B22008610861586160A2086120D208611061456
:100B320086160A208612061086160A2086120D20B4
:100B420086160A208612061486160A2086120D20A0
:100B5200061086160A2086128615061586140614B5
:0C0B620086160A2086120D203A140800A6
:100B6E00262669250130E20021200C30E2002120EA
:100B7E00D3011F2553257008B6007108B7007208FF
:100B8E00B8007308B900F630F4002830F5001C30B8
:100B9E00F6008130F70082217008BF007108C00096
:100BAE007208C1007308C2000030F4000030F50076
:100BBE002030F6008230F70056247008BB00710812
:100BCE00BC007208BD007308BE007008D300710827
:100BDE00D4007208D5007308D6004330D7005822CF
:100BEE000130D3000130D4002E30D500E321433044
:100BFE00D3000D250130D3000F30D400DF30D500E7
:0C0C0E0023222C30D3000D25BF2D0C2E0E
:100C4C0021308400133083120313F0001230B400EF
:080C5C000630B5004725080031
:080C24004E3461344E340034FB
:020C2C000F3483
:040C2E00303400342A
:080C320049344E34463400340D
:040C3A00433400340B
:0C0C3E00543465346D3470343D3400349F
:02400E004A2F37
:00000001FF
