:02000000762860
:1000060083120313FB01FA01F9018030F800F10CA9
:10001600F00C031C17287408F90775080318750FE8
:10002600FA070318FB0A0310F01F1F287408FA07C3
:1000360075080318750FFB07FB0CFA0CF90CF80C86
:10004600031C0A287B08F3007A08F2007908F100FD
:060056007808F00008002C
:0C005C008312031395011712971208007D
:10006800831603130711831212150C309704080026
:10007800831603131208013EF000F1010318F10A78
:1000880083122308F400F50103200630F2007008FB
:10009800F4007108F500720803195728F50CF40CE0
:1000A800F513FF3E50280430F1007408F000710881
:1000B80003196228F00D7010FF3E5C28303070057F
:1000C800F3007408F0007508F100F10CF00CF1135E
:1000D800F10CF00CF113700895000F3097057308B8
:0400E8009704080071
:1000EC00FF308316031388008601023083128600CA
:1000FC0083168701831212149210633083169200B8
:10010C002E20A20134202208A3003C20081CA72882
:10011C00FA3022020318A7280230FB000430FC003E
:10012C00BA30FD00FD0B9828FC0B9828FB0B982887
:10013C0000000A302207F0007008A2007008A3002B
:10014C003C20881CC2282208003C0318C22802301C
:10015C00FB000430FC00BA30FD00FD0BB328FC0B97
:10016C00B328FB0BB32800000A302202F000700801
:10017C00A2007008A3003C201A30FC00F830FD00EF
:0E018C00FD0BC628FC0BC62800008C28CC28D2
:02400E004A2F37
:00000001FF
