:02000000AB282B
:10000600710DF80DF90D7408F8027508031C750FCB
:10001600F902F00DF10D0F30FC00710DF80DF90D20
:100026007408701C1C28F8027508031C750FF90269
:100036002128F80775080318750FF907F00DF10D5B
:10004600FC0B102870182D287408F807750803187B
:08005600750FF9070000080016
:0E005E00831203132B088A002A088200080070
:10006C002F208A110A128000840AAA0A0319AB0AEB
:08007C00F003031D3628080003
:10008400831203137408003A031D51287508003ABB
:10009400031D5128FF30F0007F30F100AA2883129D
:1000A4000313FD01F901F801710870040319003408
:1000B40071087506FA00FA1BFD09FB01F51F672894
:1000C400F409F509F40A0319F50AF11F6E28F00979
:1000D400F109F00A0319F10A71087504FA00FA1B10
:1000E400832803207B189628FD1F0034F009F109AA
:1000F400F00A0319F10AF809F909F80A0319F90AC7
:100104000034F51F9228F11B8E287108F90070083D
:10011400F800F101F0017628F101F001F00A003451
:10012400F109F009FB0A7328F80A0319F90A74089B
:100134007802031D762875087902031D7628F901D3
:10014400F801F00A0319F10AF11F76280000FF34C0
:020154000800A1
:100156003F3083120313A0000630A1005B30A200DB
:100166004F30A3006630A4006D30A5007D30A60098
:100176000730A7007F30A8006F30A90083168601DC
:100186008312860183168701831287014B30AC00E8
:100196000830AD008030083AF00080302D0670023D
:1001A600031DD7282C08563C031C6A290130AE00D3
:1001B6000030AF008030F00080302F067002031D43
:1001C600E6282E08193C031C66290710E830F400BF
:1001D6000330F5002C08F0002D08F10042207008CD
:1001E600203E8400000886001A30FC00F830FD002E
:1001F600FD0BFB28FC0BFB2800000714871064305E
:10020600F4000030F5002C08F0002D08F100422023
:100216000A30F4000030F50042207808F000790832
:10022600F1007008203E8400000886001A30FC00A9
:10023600F830FD00FD0B1D29FC0B1D29000087145D
:1002460007110A30F4000030F5002C08F0002D08E4
:10025600F10042200A30F4000030F5004220780810
:10026600F0007908F1007008203E8400000886003E
:100276001A30FC00F830FD00FD0B3F29FC0B3F292E
:100286000000071587110A30F4000030F5002C082D
:10029600F0002D08F10042207808F0007908F100FE
:1002A6007008203E8400000886001A30FC00F830F2
:1002B600FD00FD0B5C29FC0B5C2900008715AE0ACE
:1002C6000319AF0ADD28AC0A0319AD0ACD28C928DF
:0202D6006B2992
:02400E004A2F37
:00000001FF
