:02000000AB282B
:10000600710DF80DF90D7408F8027508031C750FCB
:10001600F902F00DF10D0F30FC00710DF80DF90D20
:100026007408701C1C28F8027508031C750FF90269
:100036002128F80775080318750FF907F00DF10D5B
:10004600FC0B102870182D287408F807750803187B
:08005600750FF9070000080016
:0E005E00831203132D088A002C08820008006C
:10006C002F208A110A128000840AAC0A0319AD0AE7
:08007C00F003031D3628080003
:10008400831203137408003A031D51287508003ABB
:10009400031D5128FF30F0007F30F100AA2883129D
:1000A4000313FD01F901F801710870040319003408
:1000B40071087506FA00FA1BFD09FB01F51F672894
:1000C400F409F509F40A0319F50AF11F6E28F00979
:1000D400F109F00A0319F10A71087504FA00FA1B10
:1000E400832803207B189628FD1F0034F009F109AA
:1000F400F00A0319F10AF809F909F80A0319F90AC7
:100104000034F51F9228F11B8E287108F90070083D
:10011400F800F101F0017628F101F001F00A003451
:10012400F109F009FB0A7328F80A0319F90A74089B
:100134007802031D762875087902031D7628F901D3
:10014400F801F00A0319F10AF11F76280000FF34C0
:020154000800A1
:100156003F3083120313A0000630A1005B30A200DB
:100166004F30A3006630A4006D30A5007D30A60098
:100176000730A7007F30A8006F30A90083168701DB
:10018600F03088008312881408100A30F40000301A
:10019600F5002A08F0002B08F10042207008203EE6
:1001A6008400000887001A30FC00F830FD00FD0BC3
:1001B600DA28FC0BDA280000081488100A30F4004C
:1001C6000030F5002A08F0002B08F10042207808DC
:1001D600F0007908F1007008203E840000088700CE
:1001E6001A30FC00F830FD00FD0BF728FC0BF72851
:1001F6000000081E0429AA0A0319AB0A081E0429CE
:100206000129881F0D290130AA02031CAB03881F90
:100216000D290A298030F00080302B067002031D5C
:1002260016292A08633C031C242980302B06F0007B
:1002360080307002031D212900302A02031C242964
:0A0246002629AA01AB01C5282729CB
:02400E004A2F37
:00000001FF
