:020000001628C0
:0E0006008312031321088A00200882000800DC
:1000140003208A110A128000840AA00A0319A10A83
:08002400F003031D0A28080087
:10002C008316031387018801803083128800C33044
:10003C0087001A30FC00F830FD00FD0B2328FC0B68
:10004C002328000040308800C33087001A30FC00A1
:10005C00F830FD00FD0B3028FC0B30280000203060
:10006C008800C73087001A30FC00F830FD00FD0B0B
:10007C003D28FC0B3D28000010308800CF30870055
:10008C001A30FC00F830FD00FD0B4A28FC0B4A2806
:10009C00000008308800DB3087001A30FC00F83094
:1000AC00FD00FD0B5728FC0B57280000043088007E
:1000BC00F33087001A30FC00F830FD00FD0B64288B
:1000CC00FC0B6428000002308800E33087001A30F3
:1000DC00FC00F830FD00FD0B7128FC0B71280000B2
:1000EC0001308800C33087001A30FC00F830FD0066
:0E00FC00FD0B7E28FC0B7E2800001A288428AD
:02400E004A2F37
:00000001FF
