:02000000142CBE
:0E000600F201F101F001F801F30100300800F1
:10001400FB14FB1F1428FF30F300F200F100F00082
:08002400FA0DF20CFF30080098
:08002C00FA1FF2130030080076
:100034007B15FB1F24280130F300F201F101F001CC
:08004400FA0DF20CFF30080078
:10004C00A0017208031D3B287108F2007008F10032
:10005C00F001A0157208031D3B287108F200F10194
:10006C00A01120167208031949282008F302031D59
:10007C00031C4D280310F21B5128F00DF10DF20D4D
:10008C00F30B41284D280130FC000320542802308A
:0E009C00FC001A2054280430FC001620080036
:1000AA007C188B28FC185C287C19AA285528A001E2
:1000BA007208031D7C287108F2007008F1007808A4
:1000CA00F000F801A0157208031D7C287108F200DF
:1000DA007008F100F001A01120167208031D7C2897
:1000EA007108F200F101A015720803199E28200870
:1000FA00F302031D031CA2280310F21B8B28F80D20
:10010A00F00DF10DF20DF30B8228A2287B1B701C57
:10011A00A628F81FA628F00A0319F10A0319F20AF9
:10012A00031DA628F20CF10CF00CF30A0319AA28F5
:10013A00A6280130FC000320AD280230FC001A205A
:10014A00AD280430FC001620AD280830FC000A2037
:04015A000000080099
:0E015E008312031325088A002408820008007B
:10016C008312031372087606A000F801F9017308D4
:10017C007702031CD9287708FD007308F7007D0867
:10018C00F3007608FD007208F6007D08F200750891
:10019C00FD007108F5007D08F1007408FD00700881
:1001AC00F4007D08F0007708031952297208FA0050
:1001BC00F217F61777087302F70003190C290830A9
:1001CC007702031C0229F7007408F9007508F40083
:1001DC007608F500F60108307702031C0229F700B7
:1001EC007408F9007508F400F50108307702031C57
:1001FC0002297A08F2005229770803190C290310F6
:10020C00F60CF50CF40CF90CF70B0529A01F1929A9
:10021C00F909F409F509F609F90A0319F40A03199D
:10022C00F50A0319F60A7908F80774080318740F0D
:10023C00F00775080318750FF10776080318760F89
:10024C00F207A01B3229031C4229F20CF10CF00C12
:10025C00F80CF30F42294E2903184629F809F00926
:10026C00F109F209F80A0319F00A0319F10A031942
:10027C00F20A8030FA064A290130FC005520542934
:10028C000230FC00552054290430FC00262054294F
:10029C000830FC000A2054290030FC000000080043
:1002AC007B14FB1F6129F201FA1FFF30F200F100F1
:0A02BC00F000FA0DF20CFF3008000C
:0602C600FB15FF300800EB
:1002CC000E3083120313FD00FD0B6A290000080099
:1002DC0083120313FB01FA01F9018030F800F10CD1
:1002EC00F00C031C82297408F90775080318750FA4
:1002FC00FA070318FB0A0310F01F8A297408FA077F
:10030C0075080318750FFB07FB0CFA0CF90CF80CAD
:10031C00031C75297B08F3007A08F2007908F100B8
:06032C007808F000080053
:1003320083120313FB0173080319D6297208FA000A
:10034200F2178E30F302F31FD929F309F30A0830AA
:100352007302031CBC29F300F10D7208F100F201D3
:1003620008307302031CBC29F300F10DF10173087C
:10037200031D0310C42973080319C4290310F20CC6
:10038200F10CF30BBF297B1B711CCE29031CCE2958
:10039200F10A0319F20AF21BE529FA1FE829F20908
:1003A200F109F10A0319F20AE829F201F101E82937
:1003B2007B14FB1FEB29F201FA1FEB29FF30F2003D
:1003C200F100FA0DF20CEB290130FC00ED290030AE
:1003D200FC00ED29FF30FC00FC080319F12956212D
:0A03E2007108F0007208F100080035
:0C03EC00831203138030F606B6200800D0
:1003F800FF3083120313A600FF30A700FF30A800C8
:10040800FF309F01C0309F042109F0007008831657
:0C0418009F051F179F1783121F14080078
:10042400831203137008F8007108F000F101F2015F
:10043400F301FB01FC019630F300FA01F01F282AB6
:10044400F809F009F80A0319F00AFA177008F1001C
:0C0454007808F000F801F20126200800F2
:10046000831203139F01C0309F042109F00070081C
:1004700083169F051F179F1783123D08F000F00D8C
:100480007010F00D7010F00D701070089F041F14A4
:1004900066211F151F1D4E2A00004A2A1F101E0824
:1004A000F100F00183161E08F0040030F10408008A
:1004B00083120313FB017308031D77080319AF2A86
:1004C00072087606FA007708F3077E30031C6C2A60
:1004D000F3020318B22A6F2AF302031CB52A72082A
:1004E000F8007108FC007008FD00F817F6170310FB
:1004F000F201F101F0011830A0007D1C892A740876
:10050000F00775080318750FF10776080318760FC2
:10051000F207F20CF10CF00CF80CFC0CFD0C0310C3
:10052000A00B7D2AF21B992AF80DF00DF10DF20DAA
:10053000F3037B1B701CAB2AF81FAB2AF00A0319CC
:10054000F10A0319F20A031DAB2AF20CF10CF00CAC
:10055000F30A0319B22AFA1FF2130030B72A013046
:100560000320B72A02300A20B72A04301A200000DC
:02057000080081
:10057200AF208A110A128000840AA40A0319A50A6C
:08058200F003031DB92A080073
:10058A00831603131208013EF000F1010318F10A61
:10059A0083123D08F400F5016E210630F20070085E
:1005AA00F4007108F50072080319E02AF50CF40C3E
:1005BA00F513FF3ED92A0430F1007408F0007108DF
:1005CA000319EB2AF00D7010FF3EE52A3030700552
:1005DA00F3007408F0007508F100F10CF00CF11347
:1005EA00F10CF00CF113700895000F3097057308A1
:0405FA00970408005A
:1005FE00831203137408003A031D1A2B7508003A70
:10060E00031D1A2B7608003A031D1A2B7708003AA1
:10061E00031D1A2BFF30F000FF30F1007F30F20087
:10062E00FF30F300B52B8312031377080319A92BA0
:10063E0073080319AC2B720876068039FA00F2178C
:10064E00F617A0017208F8007108FC007008FD0092
:10065E007408FD027508031C750FFC027608031C56
:10066E00760FF802F801FC01FD01031C452B031067
:10067E00F20CF10CF00CF80C0130A0007708F3022C
:10068E00031C4F2B7E302007F3070318AF2B542B80
:10069E007E302007F307031CB22B1830FA07FD0D2E
:1006AE00FC0DF80DF00DF10DF20DA00D7408F00219
:1006BE007508031C750FF1027608031C760FF20203
:1006CE00760DA004201C6D2B7D14782B7408F0077A
:1006DE0075080318750FF10776080318760AF207E6
:1006EE007D10FA031F307A05031D562B7B1B7D1CD4
:1006FE009F2B0310F00DF10DF20DA00D7408F002FA
:10070E007508031C750FF1027608031C760FF202B2
:10071E00760D20040139FD070318FC0A0319F80AA7
:10072E00031D9F2BF80CFC0CFD0CF30A0319AF2BC9
:10073E00FA1FF8137808F2007C08F1007D08F0002B
:10074E000030B42B01306321B42B02300320B42BC4
:0E075E0004300A20B42B08301A2000000800D6
:10076C00831603130711831212150C30970408001B
:0C077C0083120313950117129712080056
:1007880083120313FA017308031D7A147708031DF3
:10079800FA147A080319102C033A0319DB2B7A1878
:1007A800D82BF61F0E2C0C2CF21F0C2C0E2C7208BA
:1007B8008039FA00F21376088039F6137A0603199D
:1007C800E92B7A0803190C2C0E2C770873020319ED
:1007D800F02B031C042C082C760872020319F72B43
:1007E800031C042C082C750871020319FE2B031C2A
:1007F800042C082C740870020319102C0318082CF8
:10080800FA0803190E2C0C2CFA0803190C2C0E2CC0
:100818000314080003100800031403150800080057
:100828004C2583160313860185018312061486104E
:10083800FC21121492147C3083169200BE23B62336
:100848002208BD00C5221130A2070318A30ABD0162
:10085800302270088312AF007108B0000130BD006B
:10086800302270088312A9007108AA000230BD0066
:10087800302270088312AB007108AC000330BD0051
:10088800302270088312BB007108BC003B08AD0021
:100898003C08AE002F08F0003008F1001222F630B4
:1008A800F4002830F5001C30F6008130F70058229B
:1008B8000030F4000030F5002030F6008230F700F8
:1008C800FF227008B7007108B8007208B9007308F1
:1008D800BA002908F0002A08F1001222F630F400C4
:1008E8002830F5001C30F6008130F700582200301F
:1008F800F4000030F5002030F6008230F700FF22C7
:100908003708F4003808F5003908F6003A08F70007
:10091800B6207008B7007108B8007208B9007308EB
:10092800BA002B08F0002C08F1001222F630F4006F
:100938002830F5001C30F6008130F70058220030CE
:10094800F4000030F5002030F6008230F700FF2276
:100958003708F4003808F5003908F6003A08F700B7
:10096800B6207008B7007108B8007208B90073089B
:10097800BA003B08F0003C08F1001222F630F400FF
:100988002830F5001C30F6008130F700582200307E
:10099800F4000030F5002030F6008230F700FF2226
:1009A8003708F4003808F5003908F6003A08F70067
:1009B800B6200030F4000030F5000030F600813039
:1009C800F700FF227008B3007108B4007208B50080
:1009D8007308B6007008F4007108F5007208F60094
:1009E8007308F7000030F0000030F1002030F2000A
:1009F8008330F300C423013003180030F00070087E
:100A080003193F2D0030F4000030F5002030F600C7
:100A18008330F7003308F0003408F1003508F2009D
:100A28003608F300F62199217008B1007108B20068
:100A38001130F4000030F5006E2170082207F20032
:100A480023080318013E7107F3007208A200730817
:100A5800A3008030F000803073067002031D362D2D
:100A68007208FF3C03183B2DFF30A200A3012208A7
:0E0A7800BD00C522412DBD01C5222B2C422DF3
:100A980021308400033083120313F0004830A4008F
:080AA8000530A500B922080089
:020A90000F3421
:040A920000340034F8
:02400E004A2F37
:00000001FF
